:020000041000EA
:1000000000B5324B212058609868022188439860DF
:10001000D860186158612E4B002199600221596106
:100020000121F02299502B49196001219960352056
:1000300000F044F80222904214D00621196600F024
:1000400034F8196E01211966002018661A6600F04E
:100050002CF8196E196E196E052000F02FF8012189
:100060000842F9D1002199601B49196000215960AB
:100070001A491B48016001219960EB211966A021F2
:10008000196600F012F800219960164914480160C1
:100090000121996001BC002800D000471248134993
:1000A000086003C880F30888084703B5996A0420EC
:1000B0000142FBD001200142F8D103BD02B5186610
:1000C0001866FFF7F2FF186E186E02BD00000240BE
:1000D000000000180000070000035F00212200005C
:1000E000F4000018222000A00001001008ED00E03C
:1000F00000000000000000000000000074B24E7A12
:1001000000200420F7010010C3010010C5010010F9
:10011000C1010010C1010010C1010010C101001097
:10012000C1010010C1010010C1010010C701001081
:10013000C1010010C1010010C9010010CB01001065
:10014000CD010010CD010010CD010010CD01001037
:10015000CD010010CD010010CD010010CD01001027
:10016000CD010010CD010010CD010010CD01001017
:10017000CD010010CD010010CD010010CD01001007
:10018000CD010010CD010010CD010010CD010010F7
:10019000CD010010CD010010CD010010CD010010E7
:1001A000CD010010CD010010CD010010CD010010D7
:1001B000CD010010CD010010CD010010CD010010C7
:1001C00000BE00BE00BE00BE00BE00BEEFF3058054
:1001D000103800BEF2EB88714467001060670010B1
:1001E0003802001090A31AE71E481F49086006C88D
:1001F00081F3088810471D480068002801D019487D
:10020000F3E70DA40ECC002902D000F012F8F9E7B4
:100210001749184A002000E001C19142FCD116495B
:100220008847164988471649884700BEFDE701C937
:1002300001C29A42FBD3704760670010C0000020E3
:10024000C8030020686A0010000004200000042099
:10025000686A001000100420001004200000000054
:10026000704700000000000008ED00E0000000D032
:10027000C8030020AC0E0020A1200010A107001030
:1002800099200010F8B5C0460448054B10B58342CC
:1002900003D0044B002B00D0984710BDC8030020AA
:1002A000C80300200000000006480749091A8B1007
:1002B000C90FC91810B5491003D0044B002B00D04A
:1002C000984710BDC8030020C803002000000000AC
:1002D00010B5074C2378002B09D1FFF7D5FF054B4C
:1002E000002B02D0044800E000BF0123237010BDA2
:1002F000480700200000000088640010054B10B57E
:10030000002B03D00449054800E000BFFFF7CCFFF5
:1003100010BDC046000000004C070020886400109B
:10032000F0B5C64600B505000C00C0B0502900D19C
:10033000BCE038D9C14B512900D1EAE0522900D0A4
:100340008FE10022BE491A70203210008B691840DC
:100350001A42FAD108600021642001F02DF9202111
:10036000B74A93691942FCD11B2320211360B44A78
:1003700093691942FCD11B2320211360B04A936971
:100380001942FCD11B2320211360AD4A9369194205
:10039000FCD15B2320211360A94A93691942FCD147
:1003A0004123136036E0292900D1E4E04F2935D1FB
:1003B0000022A24BA2491A70203210008B6918400B
:1003C0001A42FAD108600021642001F0F5F82021DA
:1003D0009B4A93691942FCD11B2320211360984A40
:1003E00093691942FCD11B2320211360944A93691D
:1003F0001942FCD11B2320211360914A93691942B1
:10040000FCD15B23202113608D4A93691942FCD1F2
:100410004323136040B080BCB846F0BD874B1A78C8
:10042000002A04D000221A702F2900D1FAE0854B4F
:1004300098461B78002B00D0B3E011232B4200D04C
:10044000E1E022231D406B1E9D41231FEDB2192BBD
:1004500002D87D4B1B785D406F467C4E3A223100BE
:10046000380001F0F1FD3A2046220021684401F0F5
:10047000E5FD31003A223C3120A801F0E5FDBA202B
:1004800046220021684401F0D9FD002D04D08022CD
:10049000BB18185D002802D1385D0028BAD0202191
:1004A000674A93691942FCD11060B3E70022634B9D
:1004B00063491A70203210008B6918401A42FAD131
:1004C00008600021642001F077F820215C4A9369DC
:1004D0001942FCD11B2320211360594A9369194208
:1004E000FCD11B2320211360554A93691942FCD18A
:1004F0001B2320211360524A93691942FCD15B23CC
:10050000202113604E4A93691942FCD144231360A1
:1005100080E700224A491A70203210008B69184087
:100520001A42FAD108600021642001F045F8202128
:10053000434A93691942FCD11B2320211360404A8E
:1005400093691942FCD11B23202113603C4A936913
:100550001942FCD11B2320211360394A93691942A7
:10056000FCD15B2320211360354A93691942FCD1E9
:10057000422313604EE7314B1A78002A09D000223B
:1005800020211A702E4A93691942FCD11B23136053
:1005900040E7012220211A70294A93691942FCD1AF
:1005A000F4E76F46294E3A223100380001F04CFD45
:1005B0003A2046220021684401F040FD31003A22F1
:1005C0003C3120A801F040FDBA20462200216844B9
:1005D00001F034FD22232B421ED1385D002800D1CA
:1005E00018E7202216498B691A42FCD10300934375
:1005F000413B0860192B02D97E2800D00AE700236E
:100600004246137006E7231F192B21D922231D40D0
:100610006B1E9D41EDB21FE78022BB18185D0028BC
:10062000DBD0DEE72021074B01321A70044A9369C0
:100630001942FCD15B231360ECE6C046A70E0020F4
:1006400000400340A90E0020A60E0020AC6400105C
:100650002021033C064AE4B293691942FCD114609C
:10066000D8E61A78002A00D1E1E600221A70DEE608
:10067000004003407047C046062210B500210648DE
:1006800001F0DCFC0023054A1370054A1370054A8B
:100690001370054A137010BD880E0020AB0E0020A9
:1006A000A60E0020A90E0020A70E002010B505F010
:1006B0007FFA10BDF0B557464E46DE464546E0B5DA
:1006C00006000F0083B0082B28D11378911C6846D0
:1006D00006229B4601F0B8FC2C4B009A98461B68FA
:1006E0009A4236D02A4B9A4606236B446C4699466A
:1006F0002578002D06D006222900404605F010FE80
:10070000002816D00134A145F2D14246009B136067
:100710006B469B88938053465A461A7039003000C6
:1007200005F046FA03B0F0BCBB46B246A946A04667
:10073000F0BD184B1A78002A02D0292D04D0187069
:10074000282D12D0392D18D029005846FFF7E8FD82
:10075000D8E76B469A8843469B889A42C2D10C4B95
:100760009A461B785B45BFD1D8E720210A4A936996
:100770001942FCD10D231360C4E7012007490A7810
:1007800042400A7000221A70BCE7C046880E002062
:10079000AB0E0020A70E002000400340A60E002054
:1007A0000123E12110B504225B424902184801F0FF
:1007B000C9FEFA20C00000F013FF164801F0D0FD7A
:1007C000192000F045F8D0238022E1211B06920475
:1007D0005A624902104800F0FDFF0221102000F08B
:1007E0001DF80221112000F019F808210A48002301
:1007F000012201F07DF80021002005F0CFFB01204F
:100800000021404203F026FE012000F0E9FEF6E759
:10081000008003408864001000400340094A8300C0
:100820009A1810B514684022544080322240064C79
:10083000C000A44663441A60044B9C466044416077
:1008400010BDC04604C0014004D00140004001403A
:100850000123D0228340120693629361094A8300E8
:100860009A1811684022514080320A400649C0005F
:100870008C4663441A60054B9C46052360444360E4
:100880007047C04604C0014004D001400040014010
:100890000FB400B5084883B001F062FD049B002B43
:1008A00007D005A91800019101F0DCFB034801F015
:1008B00057FD012001F0EEFB2465001034650010A7
:1008C00070B5EFF3108C72B60D4D2B68002BFCD079
:1008D000BFF35F8F0724CB08C618C05C01230C4010
:1008E000A3401C000440034207D118433070BFF3FB
:1008F0005F8F2C608CF3108870BD1000FFF7C8FF6D
:100900002C0100D0F8B54746CE46884680B5EFF3B7
:10091000108C72B6214D2C68002CFCD0BFF35F8F79
:100920009A422CD8D4080727055D061901241740E0
:10093000BC402C421FD007210127894609E0D4087A
:10094000055D06194C4639001440A1400C002942AF
:1009500011D001329342F2D201204042BFF35F8FA7
:1009600000220E4B1A608CF3108800280FDBC0BCED
:10097000B946B046F8BD254310003570EEE7BFF329
:100980005F8F00232B608CF3108801204042434688
:10099000002BECD00898FFF77BFFC0462C0100D05D
:1009A000044A1078431CDBB2172B00D910231370B4
:1009B0007047C046E002002010B5064B064C82B0DE
:1009C0000100009318221F232000FFF79BFF02B0B5
:1009D00010BDC04638650010240C00200021044BD7
:1009E000044ABFF35F8F02C39342FAD17047C046F7
:1009F000000100D0800100D0054B064A1360064A72
:100A0000136053609360D3601361536193617047C7
:100A10008080808000E400E004E400E01F231840B0
:100A20001E3B8340002905D0C021044A4900535091
:100A300013607047802201498B50FAE700E100E023
:100A400070B50D00EFF3108672B60F4A1368002BD5
:100A5000FCD0BFF35F8F0D4B10309B6884001B5997
:100A60000B4A934203D09D4201D001F011F9074B8C
:100A70009B681D51BFF35F8FBFF35F8F0022024B56
:100A80001A6086F3108870BD240100D000ED00E0EC
:100A9000CD010010F0B557464E46DE464546E0B55E
:100AA00085B0060000911700EFF3108B72B66A4A0A
:100AB0001368002BFCD0BFF35F8F0025674B5D5799
:100AC0009A46002D00DA8BE06B00654C01935B19B0
:100AD0009B009846A146C1444B4652469B7910362E
:100AE0001370604BB6009B6899590B1B2F2B33D9A1
:100AF0005D4B994200D0ACE0019B42469C465B4B6B
:100B00006544AD0063535A4B0232A218043B9B1A52
:100B10001B05584A5B0D651913436B80564B012129
:100B2000AB80FF23AB71009BEF71AB604B460B4377
:100B300019004C4B9B689951BFF35F8FBFF35F8FD8
:100B40000022454B1A608BF3108805B0F0BCBB4601
:100B5000B246A946A046F0BD01200A008243D379DF
:100B60008C46BB4231D84546130044491B1B5B41B0
:100B70005943090D3D4B63533D4B02356519043B09
:100B80005B1B1B053B4D5B0D2B43AA464D466B8003
:100B90000425AC465546E044131F44441B1B1B056B
:100BA0005B0D1D434B46997100999D8099604946A4
:100BB000DF71334B01431360BBE75800C01880005E
:100BC0002018C179B94211D902000623D356002B4F
:100BD000F3DA0293131D9A462A4B6146039319E0F8
:100BE00001F056F8002553465D576DE79088029353
:100BF0004005131D9A46031561469C464046D44461
:100C0000634604302018181AE0230005400D1B022B
:100C10001843039004235B429C46E14450464B46F4
:100C20001B1A1B055B0D9C46124B9571984663463B
:100C3000404603439380019B5A199200039BA418DA
:100C4000A380029B0E4AA371009B2260E771A36000
:100C50006FE701F01DF84FE7240100D0AA0E002035
:100C6000E402002000ED00E0CD01001000A1FFFF34
:100C70001403002000E0FFFF01BDFFFFAAAA00004F
:100C80000148804701BD0000F0B5DE4657464E469C
:100C90004546E0B50C0083B0EFF3108872B6634AA6
:100CA0001368002BFCD0BFF35F8F614B61499A68DA
:100CB000030010339F00D55900938D4243D0A542C5
:100CC00054D05D4EAA1B2F2A3DD85C4B9C461B6816
:100CD0009A4601231A0099468240534613401F2228
:100CE00001934B46024093409A4680226346504609
:100CF0009850BFF35F8FEFF305839B46002B37D0EF
:100D0000009B5B4501D000F0C3FF2A004B469A438D
:100D10009068844208D177E04B005B189B00F31881
:100D20009868844236D01A00062151560029F3DA19
:100D3000844255D0019B002B27D0C02251463F4B07
:100D40005200995019603A4B9B68DD51BFF35F8F99
:100D5000BFF35F8F0022354B1A6088F3108803B011
:100D6000F0BCBB46B246A946A046F0BD0D00EAE77E
:100D70002A004B469A4390688442D5D106201056EB
:100D8000130000280ADA0D0032E0802351462B4A76
:100D9000D150D8E706201856002822DB420011184F
:100DA000890074188946A1689960E179D971062192
:100DB00061569971002925DBA488F11A6405241570
:100DC0004C440919E0240905490D24022143998066
:100DD00013181B4A9B001178F31899711070A9E73A
:100DE00013005946002914D1FF31917115499180A2
:100DF00013490A789A71144A9B1B5B415A43120D9E
:100E00000A7097E71149E2E7062010561300002800
:100E1000C4DA0F4A0F49D21A083A5002400D014372
:100E200099800D4952080A43DA8083E7240100D0F3
:100E300000ED00E0CD010010E402002000E100E040
:100E4000AA0E002001BDFFFFAAAA000001BD0000FC
:100E50001E03002000F0FFFF00F8FFFF70B5012423
:100E60000443EFF30581EFF3108C72B6214A136847
:100E7000002BFCD0BFF35F8F1F4B05001F4AED1AFC
:100E80006D416A43120D1E4D8900AE6852B276580C
:100E9000A6421CD00621595691421CD01221595607
:100EA000914222D01E215956914220D02A215956D2
:100EB0000324914210D0134B19781A708171BFF33B
:100EC0005F8F00220B4B1A608CF3108870BDAB68EB
:100ED0000D4C5C50EFE700246100091989005B1894
:100EE000FF21997109499980E5E70124F4E702247B
:100EF000F2E7C046240100D0E4020020AAAA0000C4
:100F000000ED00E0AA0E0020CD01001001BDFFFFA2
:100F1000024B9C46614489000160704740000034E8
:100F2000F8B5134D134E2C00FF27B5421ED223688F
:100F3000002B0FD0FFF734FD01002800FFF7E8FF7A
:100F4000A780BFF35F8F0834B4420FD22368250017
:100F5000002BEFD1FFF724FD01002800FFF7D8FF99
:100F60002771BFF35F8F0834B442EFD3F8BDC0469A
:100F7000C0030020C803002010B50400FFF710FDD7
:100F800001002000FFF7C4FFFF232371BFF35F8F31
:100F900010BDC04610B504000120FFF70DFD034B46
:100FA000C3189B002360BFF35F8F10BD4000003467
:100FB0000A4B1968EFF3108072B60A68002AFCD059
:100FC000BFF35F8F1B68BFF35F8F00221A6080F34F
:100FD000108840BF002000217047C046940E0020BA
:100FE000F0B5DE4657464E464546E0B585B0EFF3D0
:100FF000058203231340B64A9900575801229A40AC
:1010000088469346B34B1A60B34B02935B46B34892
:1010100043630823FE5E002E35DABB881BB2002B2B
:1010200000DBA8E0BB79002B00D0E9E00823F85EE4
:1010300000281EDB43007A691B18DB00D3189D686B
:10104000DC686B1C00D108E1A44801004144826ABD
:101050000B69AE1A9B1A9E4213D35A46036A1A4270
:101060000FD09E4800F060FB8C4202DCCED185425E
:10107000CCD940BF05B0F0BCBB46B246A946A0469D
:10108000F0BD0D61EDE77A69730091469B19DB00B5
:1010900099444B469C68DD6800F046FB8D42BCDC01
:1010A00000D1FEE0002D00DAE3E04B46029A1B6916
:1010B000934200D1D5E04A465288494694460822D8
:1010C000B85E624600044969104398470090019158
:1010D0000099019A0B001000134300D1C9E01300DE
:1010E0000A00002800DBE0E020002900801A994176
:1010F0004B469860D96000229A5E002A00DA8CE79D
:1011000053009C187D69E4002C190093A368E468DF
:101110009A468C4200DD80E702D1834200D97CE709
:1011200008239C46BC443A8103976746009BB4461B
:101130003E000EE08C4200D1C5E01E000023F25EAE
:10114000002A0BDB53009C18E4002C19A768E46804
:10115000BA469B18DB00EB188C42EBDD3300664689
:101160009C464B461A806346039F1E80BB881BB279
:10117000002B00DA56E73A69EFF3108172B6136874
:10118000002BFCD0BFF35F8F0123BE885B42BB8086
:1011900036B23B69BFF35F8F00221A6081F310887B
:1011A000002E00DA3EE73B0008333A0099467D699D
:1011B00073009B19DB00EB189968DC688C460820EB
:1011C000115E4846002910DB009306E0A34240D0A0
:1011D0000023F95E3800002906DB4F007F18FF006E
:1011E000EF19FB68A342F1DD009B068000201E5E24
:1011F0001980002EDCDA1700BB79002B00D115E72F
:101200000023BB713D000823F95E08354B1C00D15B
:101210002FE77C690800A44603E035004B1C00D191
:1012200006E74B005B180A006146DB00CE18C95E7A
:1012300073881BB2002BF0DA01235B42DC17B3602A
:10124000F4608242EAD029803B89100033803A81E1
:10125000E4E7BB686345BBD9C6E7631C00D0F3E68F
:10126000FFE64B465B699A461B6950469847002843
:1012700023D14B461B883A693B81EFF3108372B64A
:1012800011680029FCD0BFF35F8F49467A880A8035
:101290003A697E80BFF35F8F0021116083F310886D
:1012A000BBE6844200D8FDE6B7E60C4800F03CFA05
:1012B000009B019CC01861411AE753461A685B689D
:1012C0000092019304E7824500D836E746E7C0461E
:1012D000780E00203C700540E10F001000400540F2
:1012E00070B52E4C2569002D04D00A212C48FFF73B
:1012F0000FFE70BD2B4E0321300000F00BFAE660AC
:10130000FFF74EFB284B03229C46D02322701B067E
:101310001B6801216370254B6044A3600F2380008C
:1013200020610220638063694942A18019800231F3
:10133000198647311D83585218315A5275325C391B
:10134000995218320131995218320131995218329A
:1013500001319952083518329D5202311832995292
:101360001832013199521832013199521832013133
:1013700099521832013199521832013199520C4B5D
:101380000C49DC6001303562FFF75AFB0121032074
:10139000FFF744FB084B1D60A7E7C0462C03002065
:1013A000940E00200040054040000034FFFF100074
:1013B000780E0020E10F00103860054070B5010084
:1013C0000469EFF3108C72B620680028FCD0BFF3DC
:1013D0005F8F02200D5E4C6968004019C000241820
:1013E000002D37DB208848800869BFF35F8F002617
:1013F00006608CF31088E3606388049801332061F1
:101400005B0405985B0CA26060611A1C002B1FD066
:1014100093B22804628018430A69EFF3108C72B605
:101420001368002BFCD0BFF35F8F8B8823808D80E7
:101430000B69BFF35F8F00221A608CF310880B7862
:1014400001329A40CB6808498C4663441A6070BDEB
:101450000122DDE70B69BFF35F8F00221A608CF376
:10146000108801204042F2E73C20000010B543897B
:101470000A1493421ADD53009B184269DB00D3180B
:101480000469EFF3108C72B62268002AFCD0BFF317
:101490005F8F5A88090494B2090C8A4208D0036904
:1014A000BFF35F8F00221A608CF31088002010BDFC
:1014B0008022120214435C80012302698371BFF30E
:1014C0005F8F002111608CF31088044902788C46EC
:1014D0009340C268012062441360E8E73C200000AA
:1014E000F0B504000D0006267642F717C6463619F9
:1014F0006F4100B582B08F4214D811D000F01CF9B2
:1015000032003B00121A8B41002B17DC002B47D016
:101510002000290000F04EF902B080BCB846F0BDB2
:101520008642EBD90022002316001F0000F004F9C8
:1015300032003B00121A8B41002BE7DD00F0FCF873
:1015400032003B00121A8B41002B0ADB002301936F
:10155000154B3200009315483B00FFF72FFF002882
:10156000D6DB00239C46B046114A124E736A9F4256
:1015700004D8B16A4145CBD29F42C9D11168EFF37B
:10158000108072B60B68002BFCD0BFF35F8F13681E
:10159000BFF35F8F6146196080F3108820BFE5E7D5
:1015A000002AB5D0CAE7C046B10F00102C030020B6
:1015B000940E00200040054070B504000D0000F0BE
:1015C000BBF88023001969411B06994202D3012010
:1015D00002494042FFF784FF70BDC046FFFFFF7F16
:1015E00070B5060000F0A8F8FA2204000D000023F0
:1015F00030000021920000F0B7FC802300196941FF
:101600001B06994202D3012002494042FFF768FFBE
:1016100070BDC046FFFFFF7FF0B5CE46474680B5A0
:1016200004000D0083B0EFF30587002F0DD0364A7C
:101630000020536A8B4203D3926A0130A24250D3F6
:1016400003B0C0BCB946B046F0BD304B9846DB682D
:101650009946434648461E7800F066F80B00494616
:1016600002000436B600715820008E1A2900801A34
:1016700099418F4211DC0ED020BF234A0020536ACB
:10168000AB42DDD3926A0130A242D9D2EB1A5A1E84
:101690009341D8B2D4E78642EED900F04DF822004B
:1016A0002B00121A8B41002B20DB00230193184BD7
:1016B0002200009340462B00FFF780FE011E15DD3F
:1016C000114B2E005A6A95421CD89B6AA34217D32D
:1016D0004046FFF7CBFE0C4A0020536A9E42AFD82B
:1016E000D0E75B1A5A1E9341D8B2A9E7064A0020F8
:1016F000536AAB42A4D3926A0120A242A0D2C5E7AA
:101700009542E5D120BFE3E7004005402C030020CF
:10171000B10F001010B5024A0248FFF7D1F810BD12
:1017200054650010280C00200300416A0A00986AE2
:10173000596A8A42FAD17047034B596A0A00986A7B
:10174000596A9142FAD170470040054070B50400D3
:101750000D00174A536A1900966A536A8B42FAD1F0
:101760003000190024184D41AB4216D813D0104B4D
:101770002A005B6A9D4203D90D494B6A9342FCD310
:10178000934207D10A4A02E0516A994202D1916A12
:10179000A142F9D370BDA642E9D9054B5B6A1C0092
:1017A0005A1CEFD0012201246442E5175242E3E7BC
:1017B00000400540064A536A9942FCD807D1044BC1
:1017C00002E05A6A914202D19A6A8242F9D3704782
:1017D00000400540F8B5040006200D0000F0B2F905
:1017E000002842D0364B3749E21853425A418023F1
:1017F000DB039C469205344B62441A60334B1A60FB
:1018000010000B689843FBD12D4B314AE318594225
:101810004B4180215B0049000620995200F092F96B
:101820002900C00000F012FB0130C3091ED140277F
:1018300001226262A362266BF30722D4E36A254B7E
:101840000620E51800232B60266300F07BF93900A1
:10185000800000F0FBFA7023E26A5A400E33134016
:101860002B601D4B23630323A364F8BD1B4A9342E3
:101870001ED900231A4A1B4F6262A362266BF3072C
:10188000DCD5194B144AE3181A60656AA36A06206E
:10189000AD01ED1800F056F9144900F0D7FAAD0289
:1018A0000100280000F0D2FA0021FFF74FFFC5E742
:1018B0004006800E9F011A003F180300B9E7C0469A
:1018C0000080FCBF08C0004000E0004000F0004085
:1018D000980E00202C10000001030000FEFF000005
:1018E000FFFF0000C0FF3F00303000004E0E000040
:1018F0000539013AF8B5D2004C0105001443002B1C
:1019000006D0013B5A4253419B00234302241C430F
:101910002E6BF30708D46E23EA6A624013400E4A26
:10192000AA1813602E63F8BD0C4B0D4AEB181A6011
:101930006F6AAB6A0620BF01FF1800F003F909497E
:1019400000F084FABF020100380000F07FFA0021A5
:10195000FFF7FCFEDFE7C0462C100000303000002F
:10196000010300004E0E0000F8B5DE464E46574615
:101970004546E0B58B4605000A991800160000F0B0
:1019800065FA0A9B6C001F02324B64199C46A40046
:101990006444636881469F4200D967602B1FDBB2B5
:1019A0009846012B30D9C02380229B01E3181201F5
:1019B0001A60294BAD0059599A4600291BD1730171
:1019C000E026226853401E40802342465B01E31814
:1019D0001E60012A30D9802380229B01E318120166
:1019E0001A6053464A4667605A51F0BCBB46B2463D
:1019F000A946A046F8BD586900F028FA0130430016
:101A00001B18033BFDD2DAE75B46012BCBD1C02389
:101A100003229B01E3181A60023AA3681A42FCD021
:101A20007301E0262268AD0053401E4080230A4A1D
:101A30005B019246E3181E605A462168514003221A
:101A40000A401A6001225B469A40A3681A42FCD001
:101A5000C1E7C046008000402C0C0020F0B546468F
:101A60004F46D646C0B51F00344B44009C46241850
:101A7000A4006444636888461600FF2B02D88023C4
:101A80005B006360031FDBB29A46012B30D9C02391
:101A900080229B01E31812011A60294B85005959D5
:101AA000994600291BD17301E026226853401E404D
:101AB000802352465B01E3181E60012A30D980233F
:101AC00080229B01E31812011A6080235B0063608F
:101AD0004B465F51E0BCBA46B146A846F0BD5869D6
:101AE00000F0B4F9013043001B18033BFDD2DAE7E4
:101AF0004346012BCBD1C02303229B01E3181A607C
:101B0000023AA3681A42FCD07301E02622688500DD
:101B100053401E4080230A4A5B019146E3181E6031
:101B200042462168514003220A401A60012342467E
:101B30009340A2681342FCD0C1E7C0460080004039
:101B40002C0C0020014B8000C05870472C0C00204A
:101B5000F8B5040020481D0017000E0000F076F9CB
:101B60000100380000F072F9069B29041B03194399
:101B70002368002B1EDB194B194DE21853425A41C2
:101B800080235B019C461203164B62441A60164B7D
:101B90001A6017002B689F43FBD1144B2660E21894
:101BA0002123A06013602368002BFCDA0823E16086
:101BB0001360F8BD3F2322681340B342DBD1A36812
:101BC0001B051B0D8342D6D1EE22E368D2021340DF
:101BD0008B42D0D1EDE7C046001BB7000040FDBFEF
:101BE00008C0004000E0004000F000400430000069
:101BF0008023024A9B000B43D3627047008005405C
:101C0000142310B50100188804331B88984710BDB1
:101C1000162310B50100188802331B88984710BDA1
:101C2000F8B54746CE4680B50F1E19D01423994605
:101C3000043304000025012698464B461888434685
:101C400021681B88984701C4431E984101354042D2
:101C50000640AF42F1D13000C0BCB946B046F8BD35
:101C60000126F8E7AA23064A1B0113608D235B00B7
:101C7000D3600449044B19605368002BFCDA7047A9
:101C80000040024000B0FA00006002407047C046C9
:101C900010B50148FEF7FCFD7865001070B5074DE2
:101CA000074EB54209D20024013E761BB60808CD86
:101CB000984723000134B342F9D170BD4864001045
:101CC00084640010054B064A06491A60064A074B11
:101CD0001A6010000B689843FBD1704700E0004089
:101CE000BFCDFBFE08C00040FE7F3C0000F000407E
:101CF000044BDB6C002B03D18022034BD2021A6011
:101D00007047C046000011504C201150044A054B4A
:101D10001A60054A1368DB018033FBD17047C04667
:101D2000FFFFFF0100F0004008C000404022034BCD
:101D30009A675A671A67DA667047C04600F0014032
:101D400010B5FEF74BFE10BD70B5044D044CA968EC
:101D5000C022200000F078F9AC6070BD00ED00E01A
:101D600000000020002310B5294C82B0A367FFF7C4
:101D700079FF0122274B1A60636C012BFCD10322EF
:101D8000254B1A60224A936B012BFCD1013300933F
:101D90000121224A22480433FFF7DAFE05230121FC
:101DA0000093204A2048FFF7D3FE0022022104209E
:101DB0001E4BFFF753FE0022012105201C4BFFF7AD
:101DC0004DFE0022002107201A4BFFF747FE00229C
:101DD00000210820174BFFF741FE8023DB00009312
:101DE000002200210920134BFFF7BEFD0022104BFB
:101DF00000210620FFF732FE0420FFF7A3FE0E4964
:101E000000F024F801000020FFF7F2FE02B010BD40
:101E1000008000403CB0004030B00040002F6859C6
:101E200000800240008C864700C00240001BB700C3
:101E300040597307006CDC0240420F000148042146
:101E4000014B184750030020211C0010114A936FCA
:101E50009B0813D210665166002905D0FFE7FFE703
:101E6000FFE7516F106F704704B5002801D00020C4
:101E7000C04304F0C9FA002104BDC046F0B5146E99
:101E8000556E576F166FFFF7E5FF14665566576777
:101E90001667F0BD000000D0132370B51D78012D2A
:101EA00019D014DD1F48FFF7B3FE06001E48FFF7E8
:101EB000AFFE1E4C80223100200000F0C5F8022D3C
:101EC0002DD01B48FFF79CFE1A4B186070BD1A4BB3
:101ED000164CA364F5E7184B144C23606360A360B1
:101EE000E36023616361A361E36123626362A362D0
:101EF000E36223636363A363E36323646364A364B0
:101F0000E36423656365A365E36523666366A3668F
:101F1000E36623676367A367E367A364D1E7064BC0
:101F2000A364CEE753440000534600004805002058
:101F30004C330000900E00203D1F001007B5604696
:101F400001880A0A0230DF2AFAD1C9B2820804D312
:101F5000028840880004104300E00068014A5050A5
:101F6000039007BD4805002051434343C9188C46E0
:101F7000110C83B24B4310B4040C614392B280B293
:101F8000504362431C041B0C001910BC594113043C
:101F9000120CC0185141614470470000132310B562
:101FA00012481C78FFF734FE0100012C0AD003DD33
:101FB00080220F4800F048F80E48FFF721FE0E4B34
:101FC000186010BD0A4C5422200000F03DF80B4B65
:101FD0006365A365E36523666366A366E3662367BB
:101FE0006367A367E3672362E361E5E753460000A5
:101FF000480600204C330000900E00200120001005
:1020000007B5604601880A0A0230DF2AFAD1C9B250
:10201000820804D3028840880004104300E000686E
:10202000014A5050039007BD480600200148042192
:10203000014B184760030020211C0010014B1B6856
:102040001847000060030020014B5B681847000040
:102050006003002010B5002800D110BD00F034F955
:10206000FBE7C04610B5094A0300146884B0002C91
:1020700008D0012200910648524203A9A04701203E
:1020800004B010BD00F06CF90020F9E7740E0020D8
:102090005520001000BEFDE710B5FFF7FBFFC0465E
:1020A00070B5FFF7FBFD074D074EB54209D200247E
:1020B000013E761BB60808CD984723000134B34291
:1020C000F9D170BD8464001088640010030010B55D
:1020D000080011001B68984710BDC046F0B5464681
:1020E0004F46D646C0B5437D80460E001700002BF4
:1020F0004BD0002A32DD274B01259A464B1E002487
:102100000020994607E0335D0A2B2CD02B000134C8
:102110000135BB4213DA002CF5D133780A2BF5D107
:1021200043461B7D002BF1D14346504602211B68DC
:10213000984728002B0001340135BB42EBDB874276
:1021400004DD4346391A1B6830189847F619013EDA
:1021500033780D3B5A42534142461375E0BCBA46B0
:10216000B146A846F0BD4B461B5D0D2BCED0A0421C
:10217000DADA4346211A1B6830189847434650461E
:1021800002211B6898472800D4E70368110030003B
:102190009847E3E718660010F0B5DE4657464E460E
:1021A0004546E0B585B017001C0006000D00FFF79E
:1021B000C3FA0023314A12184B41802109068B4291
:1021C00002D301222E4B52422E4908008A4604F0C7
:1021D0002BF901906B1C03D1300004F0DBF80500F3
:1021E000002C26D0284B9846284B1C68002C15D074
:1021F000002F21D1264F02E02469002C0ED0236845
:10220000002BF9D03B68002B01D0A342F4D1200071
:102210002A003100C0472469002CF0D1019B002B1B
:1022200028D1280005B0F0BCBB46B246A946A0465E
:10223000F0BD184B9846D7E7154B994602ABDF1D0A
:102240000A239B4602E02469002CE7D02368002B78
:10225000F9D04B461B68002B01D0A342F3D12A00D2
:1022600031002000C0475B460122390020003B704E
:10227000C047E8E7504604F0BFF8D2E740420F00FD
:10228000FFFFFF7FC0030020DD200010540C002062
:10229000580E0020CD2000100A4A1368002B05D1EB
:1022A0000CE01A001B691032002B07D09842F8D1BD
:1022B000002902D103691360016170470029FCD035
:1022C0001060FAE7540C0020F0B5CE46474680B5C2
:1022D00083B06B460600DD1D2870FFF72DFA002342
:1022E0001A4A12184B41802109068B4202D301225F
:1022F000174B524217490800884604F095F8164BD0
:1023000081461C68002C14D0144F02E02469002C74
:102310000FD02368002BF9D03B68002B01D0A342DB
:10232000F4D1200001222900FFF7D8FE2469002CF7
:10233000EFD14B46002B05D1300003B0C0BCB946ED
:10234000B046F0BD404604F057F8F5E740420F00B4
:10235000FFFFFF7FC0030020540C0020580E002018
:1023600070B5040004F016F80123010005000122F5
:102370002000FFF711FF084B1C68002C06D0636893
:10238000002B05D098472469002CF8D1280070BD97
:102390002469002CF3D1F9E7540C0020F0B5002992
:1023A00015DD0E4B0D271A680D4B0E4CD3185D42F0
:1023B0006B41451820215B001E5F0478A64207D0C0
:1023C00093691942FCD101301460A842F5D1F0BDE7
:1023D00093691942FCD11760F2E7C0469C0E0020B9
:1023E0000080FCBF980E002030B504000D1E2EDDCD
:1023F000002010211F4B013C1A689369194216D125
:10240000013093691942FCD1136823548542F4D1F9
:10241000194B1B68002B08D050239363516B183B5A
:102420000B4016498C466244136028000EE0124BA4
:102430001B68002B08D050239363516B183B0B4053
:102440000E498C466244136000280FD030BD0A4B01
:102450001B68002B0AD05022064B1B689A63596BED
:10246000183A0A4005498C4663441A6003204042EA
:10247000ECE7C0469C0E00201C0C0020341000002D
:10248000064B10B51B68002B06D00021044A1268C9
:102490009163044A1068984710BDC0461C0C002088
:1024A0009C0E0020200C00200822034B19688B6929
:1024B0001A42FCD17047C0469C0E002070B51B4EDE
:1024C0001B4B32680500D3185842434114331C009B
:1024D000002D04D0174B1A68002A11D070BD154E7C
:1024E0003368002BFAD0002120009563FEF796FA9E
:1024F00020001149FEF7C8FB104B35601D60EDE769
:102500001D600E4B200019600B49FEF799FA01215E
:102510002000FEF783FA502233689A63596B183A09
:102520000A4007498C4663441A60D7E79C0E002096
:102530000080FCBF1C0C002081240010200C002017
:102540003410000070B50C4E0D001C003060002AE5
:1025500003DB02211000FEF761F9002C03DB0221EE
:102560002000FEF75BF929003068FFF733F90121FD
:102570000248FFF791FE70BD9C0E00207003002002
:10258000F0B598235746DE464E464546C94AE0B563
:10259000D758973B1C008DB03C403B4200D1D7E060
:1025A000136D9B059B0F00D001E1802208A952000A
:1025B0008A800B8109A8012103F03EFFC022BE4B97
:1025C00092001A6549229246403A91464832934613
:1025D00008320092403A0292083A0192B74A4123E7
:1025E0000392B74AB74E0792B74AB84D0592B84A18
:1025F0000692B84A0492B84A90467A0500D4C8E0D8
:102600008022AD4BB54892051A65437F09AC9B46C5
:1026100083789A46C38A994600F04EFF082200212B
:102620002000FFF70BFD5A460223A270524663704A
:1026300063714B462271200001210B9303F0FCFED5
:10264000079A2C009246059A039B9146069A01969A
:102650009346049A009242460292FA0600D49BE006
:10266000944B9D6D01232B4200D0EBE0002D34D024
:1026700001239A46904BB846032499462F00984E62
:102680000AE05546A5403D4218D11F2C21D0023406
:102690002036002F00D1CDE05546631E9D403D42BF
:1026A000EFD04B4630009D6501F024F8002800D0A3
:1026B00086E0AF435546A5403D42E6D04B4630004C
:1026C0009D6501F017F8002800D096E0AF431F2C5D
:1026D000DDD13D1E474600D0E7E0009A5B469246BA
:1026E000029A019C914608253D4222D08022022672
:1026F000714BD2021A656F4BDB6C1E4217D07748C4
:1027000009AC437FC5829B468378984600F0D4FE8F
:10271000002108222000FFF791FC5B46A37043468E
:1027200066702371012120000B9503F085FE53464E
:102730004C467A0635D4BB0600D5AAE0BC4200D090
:10274000AEE00DB0F0BCBB46B246A946A046F0BD17
:1027500048229246403A91464832934608320092C7
:10276000403A0292083A0192882282268025D200BD
:10277000039208320792403A059248320692083294
:102780000492403A40239046F600ED007A0500D5C9
:1027900036E7FA0600D563E708253D42A6D17A065A
:1027A000C9D58021444A09051C001165C3E70023EF
:1027B00008AA01219380138109A803F03DFEFDE6DC
:1027C000737FB278F18A300003930492059100F090
:1027D00073FE0822002109A8FFF730FC022308A895
:1027E00043710599039B049A837102720B9109A8A6
:1027F000012103F021FEAF435CE7737FB278F18AD9
:10280000300003930492059100F056FE0822002147
:1028100009A8FFF713FC022308A843710599039B3D
:10282000049A837102720B9109A8012103F004FE3E
:10283000AF434CE7009A47469246029A5B46914660
:10284000019C50E7254C6268200012681A4A936583
:1028500000F050FF002802D101239D4306E7637F6B
:10286000E68A9946A378200009AC984600F024FE39
:10287000082200212000FFF7E1FB022363704B4692
:10288000A37043460121237120000B9603F0D4FD71
:10289000E2E78022084B120612481A65FDF7F8FF9E
:1028A000210011487940FDF7F3FF29000F48FDF79B
:1028B000EFFFC046000011500030115041040000ED
:1028C0004904000011040000090400000104000094
:1028D000510400005904000019040000580C0020A5
:1028E000780C002034660010486600101C6600104A
:1028F00070B500F0C1FD0C230D4C0E4DA3672900EF
:102900000520FEF7C1F92900FF220520FEF7C2F8D5
:102910008022002192000848FFF790FB03232364E4
:10292000064B074AE36490230120E25070BDC04685
:102930000000115081250010580C00200086002056
:102940007B0400007047C0467047C046044B186DBA
:10295000C0239B001840431E9841C0B27047C04638
:1029600000001150064B10B5186D8005800F01282E
:1029700002D0022801D1002010BD0248FDF788FFD7
:10298000000011505C66001070B5CD4C0D0023782E
:10299000002B02D0A37E002B54D1002D51D03D231B
:1029A000E35CAB4200D17BE05D23E35CAB4200D152
:1029B00092E07D23E35CAB4200D1A9E09D23E35C80
:1029C000AB4200D1C0E0BD23E35CAB4200D1D9E013
:1029D000DD23E35CAB4200D1F2E0FD23E35CAB42DC
:1029E00000D10BE11E23FF33E35CAB4200D123E1B6
:1029F0003E23FF33E35CAB4200D13EE15E23FF3375
:102A0000E35CAB4200D161E17E23FF33E35CAB4288
:102A100000D17DE19E23FF33E35CAB4200D199E11D
:102A2000BE23FF33E35CAB4200D1B5E1DE23FF33CD
:102A3000E35CAB4200D1D1E1FE23FF33E35CAB4268
:102A40000DD070BD637F8B42A7D1002362682370D5
:102A50001360A2682000136000F02EFD9DE7F023B4
:102A60005B00E25C002AECD0FF2201215200A25C54
:102A7000501C8140934892004165934920008C4648
:102A8000002162445160E1540433E358E13019609D
:102A9000F4235B00E358FF30196000F00DFDD0E730
:102AA0002023E25C002A00D17EE73E220121A25CC5
:102AB000501C8140834892004165834920008C4628
:102AC000002162445160E154636A20301960A36AB6
:102AD000196000F0F1FC67E74023E25C002A00D1B6
:102AE00067E75E220121A25C501C8140754892007C
:102AF0004165754920008C46002162445160E154D3
:102B0000636C40301960A36C196000F0D5FC50E78D
:102B10006023E25C002A00D150E77E220121A25C02
:102B2000501C8140674892004165674920008C46EF
:102B3000002162445160E154636E60301960A36EFD
:102B4000196000F0B9FC39E78023E25C002A00D16B
:102B500039E79E220121A25C501C81405948920015
:102B60004165594920008C46002162445160E1547E
:102B70000433E358803019608823E358196000F06B
:102B80009BFC20E7A023E25C002A00D120E7BE22C4
:102B90000121A25C501C81404A48920041654A498B
:102BA00020008C46002162445160E1540433E35814
:102BB000A0301960A823E358196000F07DFC07E7F6
:102BC000C023E25C002A00D107E7DE220121A25CDB
:102BD000501C81403B48920041653B4920008C4697
:102BE000002162445160E1540433E358C03019605D
:102BF000C823E358196000F05FFCEEE6E023E25CD6
:102C0000002A00D1EEE6FE220121A25C501C814088
:102C10002C48920041652C4920008C4600216244DA
:102C20005160E1540433E358E0301960E823E3587D
:102C3000196000F041FCD5E680235B00E25C002ACD
:102C400000D1D5E68F2201215200A25C501C8140A8
:102C50001C48920041651C49601C8C46002162445E
:102C60005160E1540433E358FF30196084235B0062
:102C7000E358196000F020FCBAE690235B00E25CA8
:102C8000002A00D1BAE69F2201215200A25C501C0A
:102C900081400C48920041650B4920008C46002180
:102CA00062445160E1540433E358213019609423A5
:102CB0005B00E358FF30196000F0FEFB9EE6C04663
:102CC000580C00200030115000001150A0235B0070
:102CD000E25C002A00D197E6AF2201215200A25CFB
:102CE000501C81404E48920041654E4920008C4660
:102CF000002162445160E1540433E35841301960CB
:102D0000A4235B00E358FF30196000F0D5FB7BE69D
:102D1000B0235B00E25C002A00D17BE6BF220121E8
:102D20005200A25C501C81403D48920041653D49E3
:102D300020008C46002162445160E1540433E35882
:102D400061301960B4235B00E358FF30196000F074
:102D5000B3FB5FE6C0235B00E25C002A00D15FE6C4
:102D6000CF2201215200A25C501C81402C489200CD
:102D700041652C4920008C46002162445160E15499
:102D80000433E35881301960C4235B00E358FF30FB
:102D9000196000F091FB43E6D0235B00E25C002A5F
:102DA00000D143E6DF2201215200A25C501C814089
:102DB0001B48920041651B4920008C46002162445B
:102DC0005160E1540433E358A1301960D4235B000F
:102DD000E358FF30196000F06FFB27E6E0235B004B
:102DE000E25C002A00D127E6EF2201215200A25C1A
:102DF000501C81400A48920041650A4920008C46D7
:102E0000002162445160E1540433E358C130196039
:102E1000E4235B00E358FF30196000F04DFB0BE644
:102E2000003011500000115010B501210520FDF7B0
:102E3000F5FD10BDF0B557464546DE464E46E0B5B9
:102E4000D37808009B07990F88460F0083B0002BAA
:102E500069D02021794B595C002900D1C6E040217E
:102E6000595C002900D1C8E06021595C002900D1DB
:102E7000C5E08021595C002900D1C2E0A021595C45
:102E8000002900D1BFE0C021595C002900D1BCE07D
:102E9000E021595C002900D1B9E080214900595C4A
:102EA000002900D1B5E090214900595C002900D1EA
:102EB000B1E0A0214900595C002900D1ADE0B0216A
:102EC0004900595C002900D1A9E0C0214900595CA2
:102ED000002900D1A5E0D0214900595C002900D18A
:102EE000A1E0E0214900595C002900D19DE0F024D7
:102EF0006400195D002900D199E0FF214900595C67
:102F00004F4DCE001C197519A5604E4D8901AC4678
:102F10004D4D6644AC464D4D61444D40AC466660F7
:102F2000E16001960BE0454B49491C009960494915
:102F3000494ED960C02149008C465E6001961579E2
:102F40009178A946557992794E4692467F222D0274
:102F50000A403543A170CE0951425141E1704146CA
:102F6000E17661466D05BF066D0D0F43A0212583F7
:102F700055460906B146607766703943002D31D158
:102F8000019D2960012121709C4223D04B461504EC
:102F90000543002B02D180239B041D432F4B1E6D44
:102FA000B605B60F012E02D0022E43D1002600F046
:102FB0005FFDB04202D08023DB041D432749A37F7D
:102FC0008C469A0062445560012201339A401300F6
:102FD000234A5365012003B0F0BCBB46B246A94664
:102FE000A046F0BD013D2D042943C9E70124611E1F
:102FF0006401C9B21D19A97782E70224F7E7032407
:10300000F5E70424F3E70524F1E70624EFE70724B6
:10301000EDE70824EBE70924E9E70A24E7E70B24B6
:10302000E5E70C24E3E70D24E1E70E24DFE7D23CDB
:10303000FF3CDCE70B48FDF72BFCC046580C00209A
:10304000880010500800105000021050000010506E
:1030500080001050800110500001105000001150ED
:10306000002011505C660010F0B54F46D64646462B
:10307000C0B5984608AB1B880D009A467F231F00F9
:10308000D1098946C04C1740134200D19CE05F3BF8
:10309000E35C002B04D03D23E35CAB4200D104E1B0
:1030A0004023E35C002B04D05D23E35CAB4200D102
:1030B00007E16023E35C002B04D07D23E35CAB429B
:1030C00000D105E18023E35C002B04D09D23E35C69
:1030D000AB4200D103E1A023E35C002B04D0BD236D
:1030E000E35CAB4200D101E1C023E35C002B04D0E0
:1030F000DD23E35CAB4200D1FFE0E023E35C002B87
:1031000004D0FD23E35CAB4200D1FDE080235B00F3
:10311000E35C002B05D01E23FF33E35CAB4200D100
:10312000F9E090235B00E35C002B05D03E23FF33E6
:10313000E35CAB4200D1F6E0A0235B00E35C002B34
:1031400005D05E23FF33E35CAB4200D1F3E0B02354
:103150005B00E35C002B05D07E23FF33E35CAB42D6
:1031600000D1F0E0C0235B00E35C002B05D09E2380
:10317000FF33E35CAB4200D1EDE0D0235B00E35CC6
:10318000002B05D0BE23FF33E35CAB4200D1EAE065
:10319000E0235B00E35C002B05D0DE23FF33E35C20
:1031A000AB4200D1E7E0F0235B00E05C002806D0F2
:1031B000FE23FF33E35C0020AB4200D1EEE0E0BC35
:1031C000BA46B146A846F0BDA3782600934242D045
:1031D0004B46B27073707B427B41F268F3706B4B6D
:1031E000F17E5340A022890612060B4313437268F6
:1031F0007577136001233370A6422CD04B463F04F1
:103200002F43002B02D180239B041F43604B1C6D76
:10321000A405A40F012C03D0022C00D0C6E000248A
:10322000280000F025FCA04202D08023DB041F43CD
:103230005749B37F8C469A0062445760012201339C
:103240009A401300534A536530005246414600F0FD
:1032500047FA0120B3E752462000414600F040FA09
:103260004A4696004C4A4A4B94463F042F431F60FF
:103270001C6D6644A405A40F012C03D0022C00D0C1
:1032800094E00024280000F0F3FB031B5A1E934136
:103290009B0133430122190091433D4AD1640C2123
:1032A0000339FDD20120D36489E72223E35C9342F2
:1032B00000D0F5E601267601A619B3789342C3D073
:1032C00086E74223E35C934200D0F2E60226F2E76F
:1032D0006223E35C934200D0F4E60326EBE782230B
:1032E000E35C934200D0F6E60426E4E7A223E35C25
:1032F000934200D0F8E60526DDE7C223E35C934263
:1033000000D0FAE60626D6E7E223E35C934200D03B
:10331000FCE60726CFE781235B00E35C934200D005
:10332000FFE60826C7E791235B00E35C934200D0E9
:1033300002E70926BFE7A1235B00E35C934200D0CC
:1033400005E70A26B7E7B1235B00E35C934200D0B0
:1033500008E70B26AFE7C1235B00E35C934200D094
:103360000BE70C26A7E7D1235B00E35C934200D078
:103370000EE70D269FE7E1235B00E35C934200D05C
:1033800011E70E2697E7C046580C002000001050A9
:10339000000011500020115005860020F1235B0031
:1033A000E35C0F26934200D009E784E70148FDF76C
:1033B0006FFAC0465C6600100020704710B5224BC3
:1033C0000800117880241970517864005970917840
:1033D0009970D178D97011791971517959719179A0
:1033E0009971D2791949DA71194B1A4AD9600021B9
:1033F0009A605970184AD97618495C805A60587793
:103400001160012208211A7099829A76144B186073
:103410001C6DA405A40F012C02D0022C11D1002494
:1034200000F026FBA04209D00E4A0F490C4BDA648B
:103430000C22033AFDD20120D96410BD0B4A0C497D
:10344000F4E70C48FDF724FA0000105080011050FA
:10345000580C00208000105000011050800100A086
:103460000000115042860020438600200286002082
:10347000038600205C66001080220A4B520410B5BF
:103480001A60094B09491A6010000B689843FBD178
:103490008022002152010648FEF7D0FD0922054B8B
:1034A0005A6710BD00E0004000F0004008C0004036
:1034B0000000105000001150002383764361036127
:1034C0007047C046F8B5DE464E4657464546E0B51D
:1034D0004368028B1B68161C9B46838A9A4200D95C
:1034E0001E1CC17880240A00571EBA41B6B2E400FF
:1034F000344352032243012461409B1BC170417835
:103500009BB28382002937D1751EA846C468016921
:10351000002E2CD0062D00D8C3E023000B439B07C0
:1035200000D0BEE04B1CE31A022B00D8B9E0331FD9
:103530009B0801339C4600270023CD580137E550F6
:103540000433BC45F9D863469B009E420DD04546E6
:10355000CF18C95CE418ED1A2170984505D07B7826
:103560006370012D01D0BB78A3700169838A89192A
:103570000161802109020A43002B02D18021C90187
:103580000A43802149010A435049096C890721D522
:103590008178490621D05D464D4B1D4080239B0517
:1035A0001D4343681D6083681968490500D588E09C
:1035B0004849114019604549096C890703D40C2317
:1035C000033BFDD283681A60F0BCBB46B246A946F5
:1035D000A046F8BD8178C909DDD0002BDBD0018B76
:1035E0000F1C994200D91F1CC478802621004D1E53
:1035F000A941BFB2F6003E4349033143012674405E
:10360000DB1BC47044789BB28382002C3BD1C6681C
:103610007D1EA94604694036002F2FD0062D49D9BA
:10362000631CF31A022B45D9330023439B0741D176
:1036300000253B1F9B0801339846AC460023E55804
:10364000F5500125AA46D4440433E045F7D8434653
:103650009B009F4210D0E518AC464D46E45CF6183E
:10366000ED1A3470994507D063465B787370012D6D
:1036700002D063469B78B3700469838AE4190461BD
:10368000802424022143002B02D18023DB01194333
:103690000904A0250A4359460F4BED050B401D4375
:1036A0007FE70023CF5CE75401339E42FAD10169E2
:1036B000838A5CE70023E55CF55401339F42FAD12D
:1036C000DAE781780548FDF7E3F8C04600001150BD
:1036D000FFFFFFAFFFFBFFFFFFFFFFDF6C66001088
:1036E000002310B5C3820133828283760161FFF724
:1036F000E9FE10BDF8B5CE46474680B50300807E92
:10370000002800D1B1E09A68116811685A788905DB
:10371000890D002A0ED1DA8A1C8B8A1892B2DA82BD
:10372000A1423FD200229A825B681B68C0BCB946A6
:10373000B046F8BD4A1E90461C69DD68002928D0B5
:10374000062A43D922002A4392073FD16A1CA21AB3
:10375000022A3BD90F1FBF087A1C9146002600227F
:10376000AF580136A7500432B145F9D84A46970000
:103770004246ED19E419D21BB94209D02E782670C1
:10378000002A05D06E786670012A01D0AA78A2704E
:103790001C69DA8A64188A181C611C8B92B2DA825E
:1037A000A142BFD35D682D686D0016D5A14214D12A
:1037B00099685D7809688901890D002D15D1521825
:1037C000DA82A14209D200229A82AFE70022AE5CDF
:1037D000A65401329142FAD1DAE79A8A002AA5D09A
:1037E0001800FFF76FFE0020A0E7DE684F1EB0460E
:1037F000BC461D69403600292BD0062F2ED94746DE
:103800004137EF1B022F29D92A003243920725D1D5
:103810000F1FBF087A1C914600240022B7580134BC
:10382000AF500432A145F9D84A4697006246F619CE
:10383000ED19D21BB94209D034782C70002A05D07A
:1038400074786C70012A01D0B278AA70DA8A1D6986
:103850001C8B8A186D18DA821D61B2E70022B45CF5
:10386000AC5401329142FAD1F0E799780148FDF762
:103870000FF8C0468C660010C27843691A70704712
:1038800070B588B06D462A00154B0C00060003CBBE
:1038900003C20920022200216844FEF7CFFBEC722C
:1038A000104C2E72E38A22690393A3680495059352
:1038B000E36807920693227D002A0BD001210A4D6E
:1038C0004942286802F0A8FD00232868237502F009
:1038D00093FD069B002B01D002A8984708B070BD4D
:1038E000BC0A002088030020440B0020F0B5DE460F
:1038F0004E46454657468046E0B5534B87B09946FD
:10390000524B03910293524B9B46524B049300231C
:103910004D46002700249246019303E001375E35AF
:10392000052C44D02B780134E4B24345F6D15E2314
:103930007B434B4410331B79DB07EFD5039A002AF6
:1039400002D06B789342E9D15346002B02D0AB787A
:103950005345E3D1052C6ED03F4B002B57D02000B0
:10396000FCF78AFE3D4A1378059717005A46002651
:10397000AB460021150010E0F2002B68921B92006C
:103980009B18002B02D020009B6998473B7801369A
:10399000F6B25A1C3100B24214DB9E42ECD3029ABA
:1039A000C91A9446CB005B1A9B006344EBE7019B6A
:1039B0000022002B44D107B0F0BCBB46B246A9465A
:1039C000A046F0BD2B00210040465D46059F9B466A
:1039D000FEF7DAFF049B5B7DA3421BD0049B5B7860
:1039E000A34202D1FF23049A53705E2200212800D3
:1039F000FEF724FB28000822FF211530FEF71EFBEE
:103A000028002022FF211D30FEF718FB86E7134A0D
:103A10001378A9E7049B1B7D002BDFD00121104EFA
:103A20004942306802F0F8FC0023049A30681375AC
:103A300002F0E2FCD2E70121084A0191137893E7F2
:103A40000523039363E7C046E408002004670010E1
:103A5000640700208803002079060010A40E0020CF
:103A6000440B00207047C046012070477047C04695
:103A70000138C3B2042B05D85E224243034B9B1886
:103A8000D8787047024B9879FBE7C046E4080020DD
:103A900088030020F0B54F464646D646C0B5444F91
:103AA00005003B780E00984210D0FF2B10D031005B
:103AB00028003D70FEF71CFF002804D1E0BCBA4688
:103AC000B146A846F0BD2800FFF7AEF90120F5E7A2
:103AD0003848FDF75FFA384C2000143CFDF75AFADD
:103AE000200002F0FDFB354B1C60354C2000FDF73B
:103AF00043FA344B1C60344B002B55D0334B180029
:103B0000984600E000BF324B1860EB22314C002198
:103B100052002000FEF792FA2F4B1A229946180005
:103B20000021FEF78BFA4B460122023B52421A80DB
:103B3000EB235B009946A1445E2200212000FEF7A2
:103B40007DFA20000822FF211530FEF777FA2000C9
:103B50002022FF211D305E34FEF770FA4C45EBD178
:103B600043461E491A788A4619490024002389468B
:103B700012E04B46E1001B68091B89005B18002B13
:103B800003D05B68984743461A780134E4B2511C6D
:103B90002300A14200DA8AE7A242EAD89A1AD300A7
:103BA0009B1A9B005344ECE7084B9846ADE7C04690
:103BB00088030020140C0020B8030020500B0020C4
:103BC000480B0020440B002000000000A40E002041
:103BD00064070020E40800208A0300200467001026
:103BE0000A007F21F8B5CE4647460E00030080B597
:103BF0001640114222D1441EE1B204294AD85E2067
:103C000060432749274C405C0025617DA9469942C5
:103C10003BD1217D002938D01900FFF7CDFB237D52
:103C2000002B30D00121204D4942286802F0F4FBDE
:103C30004B462868237502F0DFFB24E0471EF8B2EC
:103C400004282AD85E20D10988464743144D7600BF
:103C5000F4192C19444438346179C907C80F8146D6
:103C6000002912D01900785DFFF7A6FB0122380069
:103C700063794044934363713D300B4B801919685D
:103C8000401902F0D7F9012399464846C0BCB9460D
:103C9000B046F8BD034CE078B6E700239946F4E758
:103CA000E408002088030020440B0020F0B5CE4635
:103CB000474680B5431EDDB206000C0083B0042DDC
:103CC0005DD85E255D43704FEB5D9946012900D1BB
:103CD0006CE0022931D0002904D003B0C0BCB94641
:103CE000B046F0BD694B98464346197DCBB20229D8
:103CF00031D0032B26D0012BEFD1654CE188002970
:103D00002AD043461B7D022B0CD00121614D494234
:103D1000286802F081FB022342462868137502F0EE
:103D20006BFBE1884346802022789B68024000912B
:103D300048463100FFF798F9CFE702213000FFF73E
:103D40009FFDCAE7524B5A78092A73D000213000F0
:103D5000FFF796FDC1E74E4C434692B2DA821B7DD7
:103D6000032B5AD1012322783100D2095A40002373
:103D7000D2014846D2B20093FFF776F9ADE7434B44
:103D80009846DB78994601290BD143465D78054377
:103D900002D11B7E022B62D901213000FFF770FD9A
:103DA0009BE70229C9D0002997D19DE77B191033E1
:103DB0001B79DB07F0D5354B98461B7E022BEBD8E1
:103DC0000121344B49421868994602F025FB4346CD
:103DD00042461C751B7E013313760023D3824B466B
:103DE000186802F009FBE85D3100294AFFF7E6FA9E
:103DF000041E00D071E743461B7D002B00D16CE709
:103E00004B4601211868494202F006FB43461C75E7
:103E10004B46186802F0F0FA5FE701211D4D494258
:103E2000286802F0F9FA032342462868137502F065
:103E3000E3FA97E71B78002B88D1802501246D4297
:103E400021003000FFF7CCFE29002143013430006F
:103E5000C9B2E4B2FFF7C4FE102CF1D176E701211C
:103E60000C4B49421868994602F0D6FA434642463E
:103E70001C751B7ED582013313764B46186802F001
:103E8000BBFA4346D878AFE7E40800208803002057
:103E9000BC0A0020440B00200138C3B2042B04D814
:103EA0005E224243024BD05C7047024BD878FBE75E
:103EB000E40800208803002000487047C40A00205E
:103EC0000138C2B20B0070B5042A17D85E244443EF
:103ED0000B4D2A1910321279D207D00F002A00D1C7
:103EE00070BD7F201840DB093D334000054AC018F3
:103EF00000191168401902F075F8F1E70020EFE7AA
:103F0000E4080020440B00200138C2B20B0070B559
:103F1000042A17D85E2444430B4D2A191032127913
:103F2000D207D00F002A00D170BD7F201840DB09D6
:103F30003D334000054AC01800191168401902F0CD
:103F400079F8F1E70020EFE7E4080020440B0020B7
:103F5000F0B5C64600B505000138C4B2984682B037
:103F6000042C0DD85E237F2458430C40134F64006B
:103F70002418CE093C19A41938346679F60704D5FB
:103F8000002002B080BCB846F0BD01239C466346C9
:103F900066791E4343466671C05D009313000A00B4
:103FA0002900FFF761F80028EBD1012263799343E0
:103FB00063716379033293436371E1E7E40800209E
:103FC000F8B5431EDAB204000D00042A12D85E26AA
:103FD0005E430D4F0122BB192800D97802F046F844
:103FE000002805D0F05D2A002100FEF723FFF8BD70
:103FF0000020FCE7054E01222800B17902F036F8D6
:104000000028F5D0F078EEE7E408002088030020CF
:10401000F0B5454657464E46DE46E0B583B004004F
:104020000CA81D000388884617009946002C0ED165
:104030004D4E7378002B02D1337D002B16D000201B
:1040400003B0F0BCBB46B246A946A046F0BD621E16
:10405000D3B2042BF3D85E235343444A9B181B79F5
:10406000DB07ECD5404E337D002BE8D10121404BDE
:10407000494218689A4602F0CFF9337DDAB2002B34
:1040800037D101333375002333760D9BF282F36011
:104090000E9B74753361374BB5609B46D0235946F0
:1040A000DB000B80434619025B469A804A4639433F
:1040B0005980DA805346186802F09EF90D9B002B58
:1040C00026D0611ECBB2042B49D85E224A432A4B2C
:1040D000D05C21005A46FFF771F9041E16D1337DDA
:1040E000002BACD0534601211868494202F094F9E4
:1040F00034755346186802F07FF9A0E70E9B002B39
:1041000002D01A002B7813702B78F38A012097E7DE
:104110006B46DD1D04232B70184B611EF360CBB280
:104120003561042B1DD85E224A43134BD05C21001D
:104130005A46FFF743F9041ED1D0114C2B78042BBB
:10414000DCD13378FF2BF9D0206802F02FF800285B
:10415000F4D13378FF2BF1D000F014F8EEE7F078CB
:10416000B7E7F078E3E7C04688030020F4080020B2
:10417000440B0020BC0A0020E4080020793800101D
:10418000500B0020F0B54E4645465746DE46A64B3E
:1041900081469846E0B5A54F8DB0A54E09AD3C6867
:1041A0006269EFF3108172B61368002BFCD0BFF385
:1041B0005F8FA1612000290002F000F86269A36905
:1041C000BFF35F8F0021116083F31088002800D1B6
:1041D000C0E06B78022B4CD013D8002B19D0737829
:1041E0002878002B03D1F378984200D1C5E06A7992
:1041F0002979FFF77BFB3C686269EFF3108172B6A7
:10420000D2E7032BCBD16B68002BC8D0A8689847A6
:10421000C5E77478FF2C77D12A787370AB88962025
:10422000B380F27001F0B6FE33799A46002B00D0CD
:1042300097E00122F078B37882409343B370FEF7A1
:1042400085FB00280ED0F078FEF77CFB322001F0D1
:10425000A1FEF078FEF778FBF078FEF777FB0028F8
:1042600000D0A5E030797470002898D001F0BAFA37
:1042700095E77F232979A8780B40002806D1002BE9
:1042800068D1AA686979FFF711FD88E7421ED4B2A8
:10429000042C5FD85E2454434246A4466244103244
:1042A0001279D20756D55A006244CC0942441219F9
:1042B0001400383405926279A3469446012292464E
:1042C00062465446A2435C46627162799446042277
:1042D000924662465446A2435C466271002BD0D09F
:1042E000059B544A5B7F1278934258D3541C9C42DE
:1042F00030DB9B1ADC00E41A4F4BA400E418AB68D7
:104300006A796469A0474AE7386801F04FFF3C6862
:1043100082466269EFF3108172B61368002BFCD0FD
:10432000BFF35F8FA1612000290001F095FF626952
:10433000A369BFF35F8F0021116083F31088002809
:1043400004D04A4669782878FFF790FB5346002B43
:1043500000D124E70DB0F0BCBB46B246A946A0464A
:10436000F0BD7179002900D119E701225046009271
:10437000324B002201F0A0F911E7AA88B3889A42D3
:1043800000D034E70021FEF7FFFA737D002B3BD00D
:104390007378002B00D002E7FF337370FFE6284AE2
:1043A000DC00E31A14689B00E418002CA7D1D1E7C5
:1043B000F078FEF7D7FA5246224BB0710A201A70F5
:1043C00001F0E8FD02AB9C46162005220021604466
:1043D000FDF734FE1C4B02AA9382082313830021AD
:1043E000F07807AAFEF726FD002800D1D7E60622BE
:1043F0000292124A012101920822144B00920020DD
:104400000022FFF705FECAE6337D002BC0D0012154
:104410000F4C4942206801F0FFFF002320683375EC
:1044200001F0EAFFB4E7C046E4080020500B00208A
:1044300088030020A40E00200467001071470010BC
:1044400064070020A80E002007050000C40A002011
:10445000440B0020044B08001B7810B5FF2B01D043
:10446000FFF790FE10BDC04688030020F0B5CE4691
:10447000474680B54378040083B0002B0CD1836895
:10448000002B09D00678002E0CD1544D6B78002BF0
:1044900002D12B7D002B14D0002003B0C0BCB94644
:1044A000B046F0BD721ED3B2042BF5D85E23534341
:1044B0004B4A9B181B79DB07EED5484D2B7D002B13
:1044C000EAD10121474B49421868984601F0A4FF00
:1044D0002B7DDAB2002B04D04346186801F08CFF24
:1044E000DAE701332B7500236E752B76E368A1683C
:1044F000AB602369EA82EB60636908222B613A4B67
:1045000018009946FDF7A0FD4346186801F074FFB6
:104510002369002B27D0711ECBB2042B5AD85E2200
:104520004A43324BD05C4A463100FEF747FF041E37
:1045300017D12B7D002BAFD043460121186849428B
:1045400001F06AFF434618682C7501F055FFA3E798
:104550006369002B01D03A781A703B78E370EB8ADC
:104560006360012099E76B46DF1D04233B70204BFD
:10457000711EEB60CBB22F61042B2DD85E224A4313
:104580001A4BD05C31004A46FEF718FF061E11D0C8
:10459000184E3B78042BDBD12B78FF2BF9D03068F9
:1045A00001F004FE0028F4D12B78FF2BF1D0FFF7A7
:1045B000E9FDEEE72B7D002B00D16DE7434601219D
:1045C0001868494201F028FF434618682E7501F02B
:1045D00013FF61E7E878A6E7E878D3E788030020CF
:1045E000F4080020440B0020BC0A0020E40800204E
:1045F00079380010500B0020F0B54E46574645461E
:10460000DE46E0B583B004000CA81E00038888468F
:1046100017009946002C0ED14E4D6B78002B02D11D
:104620002B7D002B16D0002003B0F0BCBB46B24659
:10463000A946A046F0BD621ED3B2042BF3D85E2378
:104640005343454A9B181B79DB07ECD5414D2B7D25
:10465000002BE8D10121414B494218689A4601F0EC
:10466000DBFE2B7DDAB2002B39D101332B75002311
:104670002B760D9BEA82EB600E9B6C752B61384BA1
:10468000AE609B46D0235A46DB001380C0234246CF
:104690009B0013435A46538097805B464A46DA8014
:1046A0005346186801F0A8FE0D9B002B26D0611E12
:1046B000CBB2042B49D85E224A432A4BD05C21005E
:1046C0005A46FEF77BFE041E16D12B7D002BAAD086
:1046D000534601211868494201F09EFE2C7553464D
:1046E000186801F089FE9EE70E9B002B02D01A008D
:1046F000337813703378EB8A012095E76B46DE1D23
:1047000004233370184B611EEB60CBB22E61042B77
:104710001DD85E224A43134BD05C21005A46FEF757
:104720004DFE041ED1D0114C3378042BDCD12B78F4
:10473000FF2BF9D0206801F039FD0028F4D12B7847
:10474000FF2BF1D0FFF71EFDEEE7E878B7E7E8783A
:10475000E3E7C04688030020F4080020440B002053
:10476000BC0A0020E408002079380010500B00201B
:10477000F0B5DE4657464E464546E0B5C3780400E0
:1047800091B0012B12D00022BB4B06781A70721E1A
:10479000D1B24369042939D85E255543B74AAD18CB
:1047A000132B37D8B64A9B00D3589F46B24AB54D13
:1047B00013780133DBB213706A78FF2A02D0022B20
:1047C00000D896E2FF2328796B70002828D111B019
:1047D000F0BCBB46B246A946A046F0BDAA4B0AAC07
:1047E0000893902308221B03002120000993FDF762
:1047F00025FC08AB26700C93A44B20000D93A44B12
:104800000E9311230F93FFF731FEE0E7002EDED168
:104810000025C5E7FF229B4B18795A700028D6D097
:1048200000F0E0FFD3E7974D0AAC0A2001F0B2FB9D
:1048300004AB9C461A20052200216044FDF7FEFBD4
:10484000944B220023800823A3800021E878FEF700
:10485000F1FA0028BBD0904B082208938023002156
:104860001B0320000993FDF7E9FB08ABA360874B0E
:104870002000E360864B236106236361FFF7F6FDAA
:10488000A5E7297C002900D045E2697C834A0029FC
:1048900077D1A97C0029A1D00F207C4B02907C48C5
:1048A0000190022000903000FFF7A6FE8FE7A97C60
:1048B000002993D0A268754B1079527912020243F5
:1048C0001020029072480190E0680078009030005B
:1048D000FFF792FE7BE76B4D6A792979E878FFF75D
:1048E00005F86F4E654C337B092B00D01BE2C623C5
:1048F0005B00E35C0422DB0700D568E75E235343DB
:10490000E418571CE91C04222000FDF79DFB01213F
:10491000237D10220B432375F37B00216372A023B8
:1049200008ACDB002380002367800AA80993FDF709
:1049300085FB574B0AA80E9307230C940F93FFF7A0
:1049400095FD44E7564B5989802900D93FE712204D
:10495000A2680833127902904D480091019002211B
:104960003000FFF755FB32E74D4B1A7A032A00D887
:10497000F0E15A89297C002900D0F6E1697C002900
:1049800087D00D20414B89E70A220292404A00213C
:104990000192E268300012783C4B00920022FFF74F
:1049A0002BFE14E73E4B9A8A5C89188A598AAC80A0
:1049B000EA819C89DA8AEC802A82DC891A8B0833A6
:1049C0002C816881A981300019006A821C00FFF7E0
:1049D00049F8092302932E4B002201930223002160
:1049E000009330002300FFF707FEF0E6A368274F8F
:1049F0001C793A0021003000FFF736F8002800D07B
:104A0000B6E10134EB7CE2B2934200D8DFE6112339
:104A100002931F4B022101930923300000933B00B6
:104A2000FFF7F6FAD3E6174D0AAC22006979287928
:104A300000F082FE012223781A4200D1C2E661789A
:104A40000223480701D44B081340AB71EDE60D4C2F
:104A50000AAD2A006179207900F06EFEAB78DB06A2
:104A600000D4B4E6042261792079094B0092103217
:104A700000F0DAFDABE6C046A80E0020E4080020F6
:104A8000B46600108803002080060002C40A0020DB
:104A900071470010070500008006000109040000AE
:104AA000BC0A0020022001F075FAA3689E78771EE8
:104AB000FBB2042B00D98AE65E2302217B43B94C6A
:104AC000B94DE3181A7D6E700A431A750021E87813
:104AD000FDF75AFF6B7D9846002B00D1C1E16B7842
:104AE000002B01D1FF336B705E257D4363195F7A24
:104AF00004AB9C461A20052200216044FDF79EFA73
:104B0000AA4B04AA138397833100605D0AAAFEF7BB
:104B100091F9002800D15AE608220292A44A012104
:104B20000192122230000092A24B0022FFF770FA8D
:104B30004DE6142001F02EFA9B4A9D4B51791079D5
:104B400003220092002200F0B7FD40E6964C0AAD29
:104B50002A006179207900F0EFFD2B78DB0700D582
:104B6000FAE0FF2320796370002800D12FE657E692
:104B700004222B7D13432B758F4B1A0059891F7A02
:104B800008328918BF188D4B0591B94200D8AEE1A3
:104B90009A468B4BB34604938A4BA94698463A787B
:104BA000002A00D187E17B7801250B2B02D1FD780B
:104BB000BF187B78042B00D009E6059B2900DA1B7F
:104BC000380092B201F0CAFA0600082800D8FEE5C3
:104BD0005346380031004F465E461A78079300244A
:104BE00000238B468146069517E04346E1001B688B
:104BF000091B89005B18002B09D0DD684A465B461B
:104C000031003878A847002853D153461A78013428
:104C1000E4B2511C23008C4225DCA242E5D89A1A4A
:104C2000D3009B1A049A9B0094466344E5E7697C91
:104C3000002912D0A3685A79187912020243A0E61B
:104C4000A97C002900D1C9E5A3685A791879120214
:104C5000024321E6697C002955D1A97C002900D1B5
:104C6000BCE5594A18E64B465A46B946B3461F00BA
:104C70001600059BBF19BB4291D8079B5E464D4667
:104C80009B465B46697D1A784E4B501C1C688A42D5
:104C900000D9F8E00B000021984200DA96E09A1A59
:104CA000D3009B1A464A9B009B1830001B6998470B
:104CB0008DE54B465A46069DB946B3461F00160081
:104CC000002D0ED048469B78ED18EDB2C218517DEC
:104CD000FF2900D07BE50133DBB25475AB42F5D13F
:104CE000814648462300320039001D3001F01CFA8D
:104CF000BFE7642001F04EF92000FFF7B7FB002862
:104D000000D15FE563E5A2682A4B1079527912025F
:104D100002430E20D5E5A268264B10795279120283
:104D200002430C20CDE5237DDB0700D4DDE07223B8
:104D3000E35C0122DB0700D4E0E5D023E35CDB0782
:104D400000D4C8E097235B00E35C0322DB0700D5B7
:104D50003DE5D3E51C4A0DE6022261792079144B2A
:104D60000092023200F084FC31E50B20114B95E5F6
:104D7000902308AD1B012B8000230134E4B26C802A
:104D80000AAC1022002120000993FDF757F9084BC7
:104D900026700E93132320000C950F93FFF766FBEC
:104DA00015E5C046E4080020880300200705000040
:104DB00071470010C40A0020BC0A0020A40E002085
:104DC000046700106407002009040000A97D8A42DE
:104DD00061D80B000121984200DB60E7E97D8A423F
:104DE00061D80B000221984200DB58E7297E8A42F5
:104DF00066D80B000321984200DB50E7697E8A42A7
:104E00006BD80B000421984200DB48E7A97E8A4258
:104E10006FD80B000521984200DB40E7E97E8A420B
:104E20006ED80B000621984200DB38E7297F9142BB
:104E30006DD21C234B43E3180721002B00D034E72D
:104E4000FF22354B18795A70002841D1042E00D921
:104E5000BDE4324B002B00D1B9E43000FBF70AFC73
:104E6000B5E42B7D002B00D139E601212C4B4942C2
:104E70001868994601F0D0FA43462B754B461868DE
:104E800001F0BAFA2BE6CB005B1A9B00E318002B6B
:104E90009CD0002109E7CB005B1A9B00E318002B94
:104EA0009CD0012101E7CB005B1A9B00E318002B8B
:104EB0009CD00221F9E61B4B5E464D469B46E0E640
:104EC000CB005B1A9B00E318002B97D00321ECE684
:104ED00000F088FCBAE7022210E5CB005B1A9B00C9
:104EE000E318002B92D00421DFE6002206E59B4662
:104EF000C7E61C234B43E318002B8FD00521D4E6D3
:104F00001C234B43E318002B90D00621CDE60B0069
:104F1000884295DB0721C2E6880300207506001051
:104F2000440B0020A40E0020F0B54546DE4657464F
:104F30004E46E0B583B01F000CAB150004CB040057
:104F40001B88884691469B4600280ED14D4E7378AB
:104F5000002B02D1337D002B16D0002003B0F0BC13
:104F6000BB46B246A946A046F0BD421ED3B2042BB2
:104F7000F3D85E235343444A9B181B79DB07ECD5D7
:104F8000404E337D002BE8D10121404B4942186847
:104F90009A4601F041FA337DDAB2002B37D1013362
:104FA0003375002333764B46B3600E9BF282F36079
:104FB0000F9B2D023361364B3D4399464A46354B94
:104FC000558013804B4642469A805A46DA805346B3
:104FD0001868747501F010FA0E9B002B26D0611E24
:104FE000CBB2042B49D85E224A432B4BD05C210024
:104FF0004A46FEF7E3F9041E16D1337D002BACD0F0
:10500000534601211868494201F006FA34755346A7
:10501000186801F0F1F9A0E70F9B002B02D01A00ED
:105020002B7813702B78F38A012097E76B46DD1DF0
:1050300004232B70194B611EF360CBB23561042B36
:105040001DD85E224A43144BD05C21004A46FEF72D
:10505000B5F9041ED1D0124C2B78042BDCD1337857
:10506000FF2BF9D0206801F0A1F80028F4D13378A3
:10507000FF2BF1D0FFF786F8EEE7F078B7E7F0788E
:10508000E3E7C04688030020F4080020440B00201A
:10509000BC0A002081060000E408002079380010D6
:1050A000500B0020F0B50400C646631EDAB20800BB
:1050B00000B5042A00D98BE05E225A43594BD2181E
:1050C000411CC9B2072900D99CE0574B1D786B1CC5
:1050D0009846564B1F6853185B7D9D425CD9DE0095
:1050E000F31A9B00FB18002B5ED1811CC9B2082962
:1050F00043D053185B7D9D425CD898454EDAC11C65
:10510000C9B2082939D053185B7D9D4259D89845BA
:1051100044DA011DC9B208292FD053185B7D9D4286
:105120005BD898453ADA411DC9B2082925D05318F1
:105130005B7D9D4258D8984530DA811DC9B2082957
:105140001BD053185B7D9D4255D8984526DAC11D6A
:10515000C9B2082911D053185B7D9D4255D8984596
:105160001CDAFF2809D1127FAA4255D2D3009B1A1C
:105170009B00FB180721002B16D1FF222C4B18791E
:105180005A70002826D1042C11D82A4B002B0ED09F
:105190002000FBF76FFA0AE09845A6DB5D1BEB00E9
:1051A000254A5B1B9B009B1820001B69984780BC0D
:1051B000B846F0BDDE00F31A9B00FB18002B9ED012
:1051C000F2E7DE00F31A9B00FB18002BA1D0EBE7FF
:1051D000002275E700F006FBD5E7DE00F31A9B001E
:1051E000FB18002B9FD0DFE7DE00F31A9B00FB18B3
:1051F000002BA2D0D8E7DE00F31A9B00FB18002B8F
:10520000A5D0D1E70829D2D1B7E7DE00F31A9B0079
:10521000FB18002BA5D0C7E713009045ADDB072195
:10522000BCE7C046E4080020A40E0020640700206C
:1052300088030020750600100467001010B5C378BD
:105240000400002B08D10078084B0538C000042268
:10525000E168C018FCF7F8FE0021054A13681160E8
:105260002361002B01D02000984710BD700E002054
:10527000A00E002070B5C57888B0002D1ED106782C
:105280000F4B711F0A01D2180E4BC9005B189178A1
:1052900002AC997052790021DA700B4B1022009306
:1052A000012320000193FCF7C9FE6B460493074BD2
:1052B0002000267006930795FFF7D8F808B070BD58
:1052C000600E00206C0E002023030800D152001055
:1052D000F0B5CE46474680B5C4788BB0002C2BD1B4
:1052E000836805781A795B796E1F1B021343244A81
:1052F0009146F20090464F464744BA789A4220D0F1
:105300000133DBB25A425A41022152428A431D49BB
:1053100003320A4304AF02AE029200211022380089
:10532000B380F480FCF78AFE174B38003D70069678
:1053300008930994FFF79AF80BB0C0BCB946B04681
:10534000F0BD28007978FEF7BBFD002806D14B465A
:1053500042462800995CFFF7A5FEEDE70B4B3201B2
:105360007978D2182800012301940094FEF7F0FD0B
:105370000028ECD128007978FEF7C6FDE7E7C046A3
:105380006C0E002020030800D15200105C0E00209B
:10539000F0B54E464546DE465746E0B5C37806783A
:1053A00098468DB0002B33D1836845691C795B79B1
:1053B000721F1B0291462343022D00D174E0032D7E
:1053C00042D0012D5ED08F4B9A464B46DF005744AA
:1053D00030007978FEF774FD002806D10DB0F0BCDE
:1053E000BB46B246A946A046F0BD4B461A01864BC5
:1053F0007978D21800233000019300930133FEF72F
:10540000A7FD0028EAD130007978FEF77DFDE5E7B9
:105410007C4C751FEB00E41830006178FEF750FDFE
:105420000028DBD0784B2A01D218002361783000A5
:10543000019300930133FEF78BFD0028CED130009D
:105440006178FEF761FDC9E706AD0C220021280056
:10545000FCF7F4FD3000FEF71FFD6A4B28709A46FA
:105460004B46DF005346DB191A79012393436B70D7
:10547000002128002E716C7100F0DEFF6B78002B8C
:10548000ACD0A4E703AC0422C1682000FCF7DCFD2B
:105490002A00A37804271A401D4243D19B0792D5C6
:1054A0005A4B0592049342E0564A012192464A46DD
:1054B000D70052460800D21992791040114249D1C2
:1054C00029001140154271D10420804610408346C6
:1054D0004046104200D086E00821080010401142EA
:1054E00056D1D20600D472E7624254416442484A1F
:1054F000AC43033422430492FF2204AC1340A38044
:105500000300E38006AD00212800EF3AFCF796FD8A
:10551000404B2E700A934346280008940B93FEF7E5
:10552000A5FF13E090235B0004934346059306AC6C
:10553000102200212000FCF781FD04AB26700893A7
:10554000344B20000A930B97FEF790FF002800D001
:1055500044E738E7624254416442AC432E4A033484
:1055600022430492FF2204AC1340A380434606ADBD
:10557000E38000212800EF3AFCF760FD254B2E70F8
:105580000A930323280008940B93FEF76FFFDDE7CF
:10559000624254416442214AAC43033422430492A0
:1055A000FF2204AC1340A3805B46AAE76242544149
:1055B0006442AC431A4A033422430492FF2204ACEF
:1055C000134006ADA380E08000212800EF3AFCF7ED
:1055D00035FD104B2E700A930423280008940B937A
:1055E000FEF744FFB2E76242544164420D4AAC43C5
:1055F000033422430492FF2204AC1340A380E180D1
:1056000080E7C0466C0E00205C0E002020010100E7
:1056100020011400915300102001100020011300FC
:10562000200111002001120070B51D004C424C41B8
:10563000022388B00600684664429C431F3303344B
:10564000FF3323430380002302AC42808180102279
:105650000021C3802000FCF7F1FC6B4604930C9BF7
:105660002000267006950793FEF700FF08B070BD76
:1056700070B51D004C424C41022364429C43C82338
:1056800088B00600684603349B0023430380002350
:1056900002AC4280818010220021C3802000FCF7F0
:1056A000CDFC6B4604930C9B200026700695079357
:1056B000FEF7DCFE08B070BDF0B5050017001E0057
:1056C00089B000291ED0A32300936B466A469980B7
:1056D000042302ACD380002108222000FCF7AEFC9A
:1056E0006B46A3600E9B25706361104B2D012361F7
:1056F0000F4BED18E5600F4B20001E60FEF7B6FE65
:1057000009B0F0BDA0230093802302ACDB02082285
:10571000002120000193FCF791FC6B4604930E9B43
:1057200006962570002605970793E4E73D52001082
:10573000100E0020A00E0020010010B5044B05390A
:10574000C90010000422C918FCF77EFC012010BD1E
:10575000700E002010B5082200210248FCF76EFCF4
:10576000012010BD6C0E00200120704770B51400A0
:1057700052790D00092A10D1A279002A0DD1E279BF
:10578000012A0AD80F2B08D92678A6197378052B79
:1057900003D1F378DB439B0701D0002070BD3100BB
:1057A0002800FEF70DFC0028F7D0A278034B053D3A
:1057B000E900CA54B2785B185A70EFE76C0E00200B
:1057C00010B5042806D9064A0538C00010184378D9
:1057D000002B00D110BD08220021FCF72FFCF9E7B7
:1057E0006C0E002070B5114C451FEB00E41882B020
:1057F00061780600FEF764FB002801D100200CE070
:105800000B4B2A01D21800236178300001930093DA
:105810000133FEF79DFB002801D002B070BD3000BF
:105820006178FEF771FB0020F7E7C0466C0E0020A0
:105830005C0E0020F0B5114B451FEA00D35C04005C
:1058400089B000208B4201D009B0F0BD6F463A000C
:105850000B4B2D0103CB03C2160000211822300090
:10586000FCF7ECFB074B3000ED18074B3470B760CA
:10587000F5603361FEF7FAFDE6E7C0466C0E0020E6
:105880003C670010600E002075520010F0B54646CF
:10589000D6464F46C0B5050014008AB0461F002A00
:1058A0003ED14B4B9946330198464B464246985C55
:1058B000002835D001239A46034253D1454FF300C7
:1058C000FB189A78002A2CD051464308194265D11A
:1058D00001240134E4B2944223D80300E340194286
:1058E000F7D0221E5BD1A0230293802304AFDB02FA
:1058F0000822002138000393FCF7A0FB02AB3D70A7
:105900000693354B07940893022309930023334AE7
:1059100038001360FEF7AAFD002801D0012009E03D
:105920002C4FF4003C1928006178FEF7C9FA0028D2
:1059300006D100200AB0E0BCBA46B146A846F0BD88
:10594000234B3201D2180023617828000193009381
:105950000133FEF7FDFA0028E0D128006178FEF758
:10596000D3FAE6E7A0230293802304AFDB020822E8
:10597000002138000393FCF761FB02AB3D700693F6
:10598000434604334B440793134B38000893534664
:105990000993124B1C60FEF769FDBDE70122A323AA
:1059A00004AF029302AC9F3BA280E3800822002157
:1059B0003800FCF743FB02237B61094B3D703B61E0
:1059C000434604334B44FB60BC60034B9FE7C04637
:1059D0005C0E00206C0E002091530010A00E0020E1
:1059E0003D520010F0B5D6464F464646C0B58268D7
:1059F000040053788CB00A3B012B02D9C378002BEA
:105A000013D1654D5379177926782A781B0260697E
:105A10003B43B24217D0AA7BB24241D02A7FB24266
:105A200045D02A22AA5CB24205D00CB0E0BCBA46EE
:105A3000B146A846F0BD2B22AA5CBA42F5D103229A
:105A40009146904605E06A78BA42E4D10022914638
:105A50009046002EE9D0022874D02FD8002851D0CB
:105A600043464246DB009B1A5B00EB185B7804ADB3
:105A7000AB800023494A4A49127806AC29806A80E3
:105A8000EB80102200212000FCF7D8FA454B26704D
:105A90000A930223200008950B93FEF7E7FCC4E766
:105AA000EA7BBA42BAD1012291469046D1E76A7F99
:105AB000BA42B6D1022291469046CAE70328B4D131
:105AC000FEF7FAF94146A3680200CC009879DB7929
:105AD000611A1B0249000343685CB042A5D1012052
